{
  "contractName": "Voting",
  "abi": [
    {
      "constant": true,
      "inputs": [],
      "name": "getCandidates",
      "outputs": [
        {
          "name": "",
          "type": "bytes32[]"
        }
      ],
      "payable": false,
      "stateMutability": "view",
      "type": "function"
    },
    {
      "constant": false,
      "inputs": [
        {
          "name": "candidate",
          "type": "bytes32"
        }
      ],
      "name": "addCandidate",
      "outputs": [],
      "payable": false,
      "stateMutability": "nonpayable",
      "type": "function"
    },
    {
      "constant": true,
      "inputs": [
        {
          "name": "candidate",
          "type": "bytes32"
        }
      ],
      "name": "totalVotesFor",
      "outputs": [
        {
          "name": "",
          "type": "uint8"
        }
      ],
      "payable": false,
      "stateMutability": "view",
      "type": "function"
    },
    {
      "constant": true,
      "inputs": [
        {
          "name": "candidate",
          "type": "bytes32"
        }
      ],
      "name": "validCandidate",
      "outputs": [
        {
          "name": "",
          "type": "bool"
        }
      ],
      "payable": false,
      "stateMutability": "view",
      "type": "function"
    },
    {
      "constant": true,
      "inputs": [
        {
          "name": "",
          "type": "bytes32"
        }
      ],
      "name": "votesReceived",
      "outputs": [
        {
          "name": "",
          "type": "uint8"
        }
      ],
      "payable": false,
      "stateMutability": "view",
      "type": "function"
    },
    {
      "constant": true,
      "inputs": [
        {
          "name": "",
          "type": "uint256"
        }
      ],
      "name": "candidateList",
      "outputs": [
        {
          "name": "",
          "type": "bytes32"
        }
      ],
      "payable": false,
      "stateMutability": "view",
      "type": "function"
    },
    {
      "constant": false,
      "inputs": [
        {
          "name": "candidate",
          "type": "bytes32"
        }
      ],
      "name": "voteForCandidate",
      "outputs": [],
      "payable": false,
      "stateMutability": "nonpayable",
      "type": "function"
    },
    {
      "inputs": [
        {
          "name": "candidateNames",
          "type": "bytes32[]"
        }
      ],
      "payable": false,
      "stateMutability": "nonpayable",
      "type": "constructor"
    }
  ],
  "bytecode": "0x6060604052341561000f57600080fd5b604051610595380380610595833981016040528080518201919050508060019080519060200190610041929190610048565b50506100c0565b82805482825590600052602060002090810192821561008a579160200282015b82811115610089578251829060001916905591602001919060010190610068565b5b509050610097919061009b565b5090565b6100bd91905b808211156100b95760008160009055506001016100a1565b5090565b90565b6104c6806100cf6000396000f300606060405260043610610083576000357c0100000000000000000000000000000000000000000000000000000000900463ffffffff16806306a49fce14610088578063230d6ed8146100f25780632f265cf714610119578063392e66781461015a5780637021939f14610199578063b13c744b146101da578063cc9ab26714610219575b600080fd5b341561009357600080fd5b61009b610240565b6040518080602001828103825283818151815260200191508051906020019060200280838360005b838110156100de5780820151818401526020810190506100c3565b505050509050019250505060405180910390f35b34156100fd57600080fd5b6101176004808035600019169060200190919050506102a2565b005b341561012457600080fd5b61013e6004808035600019169060200190919050506102ef565b604051808260ff1660ff16815260200191505060405180910390f35b341561016557600080fd5b61017f600480803560001916906020019091905050610334565b604051808215151515815260200191505060405180910390f35b34156101a457600080fd5b6101be600480803560001916906020019091905050610394565b604051808260ff1660ff16815260200191505060405180910390f35b34156101e557600080fd5b6101fb60048080359060200190919050506103b4565b60405180826000191660001916815260200191505060405180910390f35b341561022457600080fd5b61023e6004808035600019169060200190919050506103d8565b005b610248610435565b600180548060200260200160405190810160405280929190818152602001828054801561029857602002820191906000526020600020905b81546000191681526020019060010190808311610280575b5050505050905090565b600015156102af82610334565b15151415156102bd57600080fd5b600180548060010182816102d19190610449565b91600052602060002090016000839091909150906000191690555050565b60006102fa82610334565b151561030557600080fd5b600080836000191660001916815260200190815260200160002060009054906101000a900460ff169050919050565b600080600090505b60018054905081101561038957826000191660018281548110151561035d57fe5b90600052602060002090015460001916141561037c576001915061038e565b808060010191505061033c565b600091505b50919050565b60006020528060005260406000206000915054906101000a900460ff1681565b6001818154811015156103c357fe5b90600052602060002090016000915090505481565b6103e181610334565b15156103ec57600080fd5b6001600080836000191660001916815260200190815260200160002060008282829054906101000a900460ff160192506101000a81548160ff021916908360ff16021790555050565b602060405190810160405280600081525090565b8154818355818115116104705781836000526020600020918201910161046f9190610475565b5b505050565b61049791905b8082111561049357600081600090555060010161047b565b5090565b905600a165627a7a72305820f87167b7a623750b708521670285b378bb570c906266de282ad6bdfec184e8c40029",
  "source": "pragma solidity ^0.4.18;\n\ncontract Voting {\n    // mapping is like an associative array / hash (ie. ['foo' => 'bar'])\n    mapping (bytes32 => uint8) public votesReceived;\n\n    // An array of byte32 values\n    bytes32[] public candidateList;\n\n    // Our constructor, this is executed when the contract is deployed to the blockchain\n    // Accepts an array of byte32 values (these are the candidates people will vote on)\n    function Voting(bytes32[] candidateNames) public {\n        // Assign our candidates\n        candidateList = candidateNames;\n    }\n\n    // This function retrieves a candidate's vote count\n    // It accepts a bytes32 candidate name\n    // It's 'view', so it only returns data, does not modify anything\n    // It's public\n    // And it returns a uint8 value (the total number of votes)\n    function totalVotesFor(bytes32 candidate) view public returns (uint8) {\n        // Require validates the condition, if false, it returns a REVERSE op code and does not use up the remaining gas\n        // Useful for validating input. See: https://ethereum.stackexchange.com/a/24185\n        require(validCandidate(candidate));\n\n        return votesReceived[candidate];\n    }\n\n    // This function votes for the given candidate\n    // It modifies a value\n    // It's public and does not return anything\n    function voteForCandidate(bytes32 candidate) public {\n        require(validCandidate(candidate));\n\n        votesReceived[candidate] += 1;\n    }\n\n    // Also a 'view'-only function, it does not modify anything\n    // It looks through the possible candidates\n    // If it finds it, returns true, otherwise false\n    function validCandidate(bytes32 candidate) view public returns (bool) {\n        for (uint i = 0; i < candidateList.length; i++) {\n            if (candidateList[i] == candidate) {\n                return true;\n            }\n        }\n        return false;\n    }\n\n    // Returns the list of all current candidates\n    function getCandidates() public view returns (bytes32[]) {\n        return candidateList;\n    }\n\n    // Appends a candidate to the array\n    function addCandidate(bytes32 candidate) public {\n        // Make sure the new candidate is not already in the array\n        require(validCandidate(candidate) == false);\n        candidateList.push(candidate);\n    }\n}\n",
  "sourcePath": "/Users/maxarias/workspace/hello-world-voting-dapp/contracts/Voting.sol",
  "compiler": {
    "name": "solc",
    "version": "0.4.18+commit.9cf6e910.Emscripten.clang"
  },
  "schemaVersion": "1.0.1",
  "updatedAt": "2018-01-08T13:37:26.903Z"
}